{
  "_format": "hh-sol-artifact-1",
  "contractName": "Court",
  "sourceName": "contracts/Court.sol",
  "abi": [
    {
      "anonymous": false,
      "inputs": [
        {
          "indexed": false,
          "internalType": "uint256",
          "name": "caseNo",
          "type": "uint256"
        }
      ],
      "name": "CaseCreated",
      "type": "event"
    },
    {
      "anonymous": false,
      "inputs": [
        {
          "indexed": true,
          "internalType": "uint256",
          "name": "caseNo",
          "type": "uint256"
        },
        {
          "indexed": true,
          "internalType": "uint256",
          "name": "versionId",
          "type": "uint256"
        }
      ],
      "name": "DocumentAdded",
      "type": "event"
    },
    {
      "inputs": [
        {
          "internalType": "uint256",
          "name": "caseNo",
          "type": "uint256"
        },
        {
          "internalType": "string[]",
          "name": "hashArray",
          "type": "string[]"
        }
      ],
      "name": "addDocument",
      "outputs": [],
      "stateMutability": "nonpayable",
      "type": "function"
    },
    {
      "inputs": [
        {
          "internalType": "address",
          "name": "judge",
          "type": "address"
        }
      ],
      "name": "addJudge",
      "outputs": [],
      "stateMutability": "nonpayable",
      "type": "function"
    },
    {
      "inputs": [
        {
          "internalType": "uint256",
          "name": "",
          "type": "uint256"
        }
      ],
      "name": "cases",
      "outputs": [
        {
          "internalType": "uint256",
          "name": "caseNo",
          "type": "uint256"
        }
      ],
      "stateMutability": "view",
      "type": "function"
    },
    {
      "inputs": [],
      "name": "createCase",
      "outputs": [],
      "stateMutability": "nonpayable",
      "type": "function"
    },
    {
      "inputs": [
        {
          "internalType": "uint256",
          "name": "caseNo",
          "type": "uint256"
        }
      ],
      "name": "getCase",
      "outputs": [
        {
          "components": [
            {
              "internalType": "uint256",
              "name": "caseNo",
              "type": "uint256"
            },
            {
              "components": [
                {
                  "internalType": "uint256",
                  "name": "version",
                  "type": "uint256"
                },
                {
                  "internalType": "string[]",
                  "name": "hashesh",
                  "type": "string[]"
                }
              ],
              "internalType": "struct Court.CaseData[]",
              "name": "data",
              "type": "tuple[]"
            }
          ],
          "internalType": "struct Court.CourtData",
          "name": "",
          "type": "tuple"
        }
      ],
      "stateMutability": "view",
      "type": "function"
    },
    {
      "inputs": [
        {
          "internalType": "uint256",
          "name": "",
          "type": "uint256"
        }
      ],
      "name": "judges",
      "outputs": [
        {
          "internalType": "address",
          "name": "",
          "type": "address"
        }
      ],
      "stateMutability": "view",
      "type": "function"
    }
  ],
  "bytecode": "0x6080604052348015600f57600080fd5b506000339080600181540180825580915050600190039060005260206000200160009091909190916101000a81548173ffffffffffffffffffffffffffffffffffffffff021916908373ffffffffffffffffffffffffffffffffffffffff16021790555061145f806100826000396000f3fe608060405234801561001057600080fd5b50600436106100625760003560e01c80631b9505ea14610067578063927cab4714610071578063a91a10801461008d578063b06b0368146100bd578063f09790dd146100ed578063fea3b59a1461011d575b600080fd5b61006f610139565b005b61008b600480360381019061008691906109c8565b6102ff565b005b6100a760048036038101906100a29190610a2b565b61043f565b6040516100b49190610cf5565b60405180910390f35b6100d760048036038101906100d29190610a2b565b6105d8565b6040516100e49190610d26565b60405180910390f35b61010760048036038101906101029190610a2b565b610617565b6040516101149190610d50565b60405180910390f35b61013760048036038101906101329190610f86565b610645565b005b6000805b6000805490508110156101d1573373ffffffffffffffffffffffffffffffffffffffff166000828154811061017557610174610fe2565b5b9060005260206000200160009054906101000a900473ffffffffffffffffffffffffffffffffffffffff1673ffffffffffffffffffffffffffffffffffffffff16036101c457600191506101d1565b808060010191505061013d565b5080610212576040517f08c379a000000000000000000000000000000000000000000000000000000000815260040161020990611094565b60405180910390fd5b60018081600181540180825580915050039060005260206000209050506000600180808054905061024391906110e3565b8154811061025457610253610fe2565b5b90600052602060002090600202019050600180549050816000018190555080600101600181600181540180825580915050039060005260206000209050506000816001016000815481106102ab576102aa610fe2565b5b9060005260206000209060020201600001819055507f18b36092ac212dd4064430eaa7385b398ad5a741f1b5246d7cd1b62847ba111a81600001546040516102f39190610d50565b60405180910390a15050565b6000805b600080549050811015610397573373ffffffffffffffffffffffffffffffffffffffff166000828154811061033b5761033a610fe2565b5b9060005260206000200160009054906101000a900473ffffffffffffffffffffffffffffffffffffffff1673ffffffffffffffffffffffffffffffffffffffff160361038a5760019150610397565b8080600101915050610303565b50806103d8576040517f08c379a00000000000000000000000000000000000000000000000000000000081526004016103cf90611094565b60405180910390fd5b6000829080600181540180825580915050600190039060005260206000200160009091909190916101000a81548173ffffffffffffffffffffffffffffffffffffffff021916908373ffffffffffffffffffffffffffffffffffffffff1602179055505050565b610447610862565b60006001808461045791906110e3565b8154811061046857610467610fe2565b5b90600052602060002090600202019050806040518060400160405290816000820154815260200160018201805480602002602001604051908101604052809291908181526020016000905b828210156105c857838290600052602060002090600202016040518060400160405290816000820154815260200160018201805480602002602001604051908101604052809291908181526020016000905b828210156105b157838290600052602060002001805461052490611146565b80601f016020809104026020016040519081016040528092919081815260200182805461055090611146565b801561059d5780601f106105725761010080835404028352916020019161059d565b820191906000526020600020905b81548152906001019060200180831161058057829003601f168201915b505050505081526020019060010190610505565b5050505081525050815260200190600101906104b3565b5050505081525050915050919050565b600081815481106105e857600080fd5b906000526020600020016000915054906101000a900473ffffffffffffffffffffffffffffffffffffffff1681565b6001818154811061062757600080fd5b90600052602060002090600202016000915090508060000154905081565b6000805b6000805490508110156106dd573373ffffffffffffffffffffffffffffffffffffffff166000828154811061068157610680610fe2565b5b9060005260206000200160009054906101000a900473ffffffffffffffffffffffffffffffffffffffff1673ffffffffffffffffffffffffffffffffffffffff16036106d057600191506106dd565b8080600101915050610649565b508061071e576040517f08c379a000000000000000000000000000000000000000000000000000000000815260040161071590611094565b60405180910390fd5b60006001808561072e91906110e3565b8154811061073f5761073e610fe2565b5b906000526020600020906002020190506000600190506000826001018054905011156107af576001826001016001846001018054905061077f91906110e3565b815481106107905761078f610fe2565b5b9060005260206000209060020201600001546107ac9190611177565b90505b8160010160018160018154018082558091505003906000526020600020905050600082600101600184600101805490506107e991906110e3565b815481106107fa576107f9610fe2565b5b906000526020600020906002020190508481600101908051906020019061082292919061087c565b5081816000018190555081867f97ae81f09ec3c6f5e65c7088d60fdbf0a931ed2f713edf58ea690e9e605c5ba160405160405180910390a3505050505050565b604051806040016040528060008152602001606081525090565b8280548282559060005260206000209081019282156108c4579160200282015b828111156108c35782518290816108b39190611357565b509160200191906001019061089c565b5b5090506108d191906108d5565b5090565b5b808211156108f557600081816108ec91906108f9565b506001016108d6565b5090565b50805461090590611146565b6000825580601f106109175750610936565b601f0160209004906000526020600020908101906109359190610939565b5b50565b5b8082111561095257600081600090555060010161093a565b5090565b6000604051905090565b600080fd5b600080fd5b600073ffffffffffffffffffffffffffffffffffffffff82169050919050565b60006109958261096a565b9050919050565b6109a58161098a565b81146109b057600080fd5b50565b6000813590506109c28161099c565b92915050565b6000602082840312156109de576109dd610960565b5b60006109ec848285016109b3565b91505092915050565b6000819050919050565b610a08816109f5565b8114610a1357600080fd5b50565b600081359050610a25816109ff565b92915050565b600060208284031215610a4157610a40610960565b5b6000610a4f84828501610a16565b91505092915050565b610a61816109f5565b82525050565b600081519050919050565b600082825260208201905092915050565b6000819050602082019050919050565b600081519050919050565b600082825260208201905092915050565b6000819050602082019050919050565b600081519050919050565b600082825260208201905092915050565b60005b83811015610af9578082015181840152602081019050610ade565b60008484015250505050565b6000601f19601f8301169050919050565b6000610b2182610abf565b610b2b8185610aca565b9350610b3b818560208601610adb565b610b4481610b05565b840191505092915050565b6000610b5b8383610b16565b905092915050565b6000602082019050919050565b6000610b7b82610a93565b610b858185610a9e565b935083602082028501610b9785610aaf565b8060005b85811015610bd35784840389528151610bb48582610b4f565b9450610bbf83610b63565b925060208a01995050600181019050610b9b565b50829750879550505050505092915050565b6000604083016000830151610bfd6000860182610a58565b5060208301518482036020860152610c158282610b70565b9150508091505092915050565b6000610c2e8383610be5565b905092915050565b6000602082019050919050565b6000610c4e82610a67565b610c588185610a72565b935083602082028501610c6a85610a83565b8060005b85811015610ca65784840389528151610c878582610c22565b9450610c9283610c36565b925060208a01995050600181019050610c6e565b50829750879550505050505092915050565b6000604083016000830151610cd06000860182610a58565b5060208301518482036020860152610ce88282610c43565b9150508091505092915050565b60006020820190508181036000830152610d0f8184610cb8565b905092915050565b610d208161098a565b82525050565b6000602082019050610d3b6000830184610d17565b92915050565b610d4a816109f5565b82525050565b6000602082019050610d656000830184610d41565b92915050565b600080fd5b7f4e487b7100000000000000000000000000000000000000000000000000000000600052604160045260246000fd5b610da882610b05565b810181811067ffffffffffffffff82111715610dc757610dc6610d70565b5b80604052505050565b6000610dda610956565b9050610de68282610d9f565b919050565b600067ffffffffffffffff821115610e0657610e05610d70565b5b602082029050602081019050919050565b600080fd5b600080fd5b600067ffffffffffffffff821115610e3c57610e3b610d70565b5b610e4582610b05565b9050602081019050919050565b82818337600083830152505050565b6000610e74610e6f84610e21565b610dd0565b905082815260208101848484011115610e9057610e8f610e1c565b5b610e9b848285610e52565b509392505050565b600082601f830112610eb857610eb7610d6b565b5b8135610ec8848260208601610e61565b91505092915050565b6000610ee4610edf84610deb565b610dd0565b90508083825260208201905060208402830185811115610f0757610f06610e17565b5b835b81811015610f4e57803567ffffffffffffffff811115610f2c57610f2b610d6b565b5b808601610f398982610ea3565b85526020850194505050602081019050610f09565b5050509392505050565b600082601f830112610f6d57610f6c610d6b565b5b8135610f7d848260208601610ed1565b91505092915050565b60008060408385031215610f9d57610f9c610960565b5b6000610fab85828601610a16565b925050602083013567ffffffffffffffff811115610fcc57610fcb610965565b5b610fd885828601610f58565b9150509250929050565b7f4e487b7100000000000000000000000000000000000000000000000000000000600052603260045260246000fd5b600082825260208201905092915050565b7f4f6e6c792061206a756467652063616e20706572666f726d207468697320616360008201527f74696f6e00000000000000000000000000000000000000000000000000000000602082015250565b600061107e602483611011565b915061108982611022565b604082019050919050565b600060208201905081810360008301526110ad81611071565b9050919050565b7f4e487b7100000000000000000000000000000000000000000000000000000000600052601160045260246000fd5b60006110ee826109f5565b91506110f9836109f5565b9250828203905081811115611111576111106110b4565b5b92915050565b7f4e487b7100000000000000000000000000000000000000000000000000000000600052602260045260246000fd5b6000600282049050600182168061115e57607f821691505b60208210810361117157611170611117565b5b50919050565b6000611182826109f5565b915061118d836109f5565b92508282019050808211156111a5576111a46110b4565b5b92915050565b60008190508160005260206000209050919050565b60006020601f8301049050919050565b600082821b905092915050565b60006008830261120d7fffffffffffffffffffffffffffffffffffffffffffffffffffffffffffffffff826111d0565b61121786836111d0565b95508019841693508086168417925050509392505050565b6000819050919050565b600061125461124f61124a846109f5565b61122f565b6109f5565b9050919050565b6000819050919050565b61126e83611239565b61128261127a8261125b565b8484546111dd565b825550505050565b600090565b61129761128a565b6112a2818484611265565b505050565b5b818110156112c6576112bb60008261128f565b6001810190506112a8565b5050565b601f82111561130b576112dc816111ab565b6112e5846111c0565b810160208510156112f4578190505b611308611300856111c0565b8301826112a7565b50505b505050565b600082821c905092915050565b600061132e60001984600802611310565b1980831691505092915050565b6000611347838361131d565b9150826002028217905092915050565b61136082610abf565b67ffffffffffffffff81111561137957611378610d70565b5b6113838254611146565b61138e8282856112ca565b600060209050601f8311600181146113c157600084156113af578287015190505b6113b9858261133b565b865550611421565b601f1984166113cf866111ab565b60005b828110156113f7578489015182556001820191506020850194506020810190506113d2565b868310156114145784890151611410601f89168261131d565b8355505b6001600288020188555050505b50505050505056fea2646970667358221220eed067672324d46893bc3efa5ee648b83772c7abaa66a5af352ff6d4cb0034cf64736f6c634300081c0033",
  "linkReferences": {},
  "deployedLinkReferences": {}
}